:020000040800F2
:10000000D0070020310C00087502000877020008B4
:100010007B0200087F020008830200080000000045
:10002000000000000000000000000000870200083F
:1000300089020008000000008B0200088D02000801
:100040004B0C00084B0C00084B0C00084B0C000834
:100050004B0C00084B0C00084B0C00084B0C000824
:100060004B0C00084B0C00084B0C00084B0C000814
:100070004B0C00084B0C00084B0C00084B0C000804
:100080004B0C00084B0C00084B0C00084B0C0008F4
:100090004B0C00084B0C00084B0C00084B0C0008E4
:1000A0004B0C00084B0C00084B0C00084B0C0008D4
:1000B0004B0C00084B0C00084B0C00084B0C0008C4
:1000C0004B0C00084B0C00084B0C00084B0C0008B4
:1000D0004B0C00089F0B0008DD070008970900087B
:1000E0004B0C00084B0C00084B0C000800F002F809
:1000F00000F048F80AA090E8000C82448344AAF17A
:100100000107DA4501D100F03DF8AFF2090EBAE877
:100110000F0013F0010F18BFFB1A43F0010318473B
:10012000A81D0000C81D0000103A24BF78C878C17F
:10013000FAD8520724BF30C830C144BF04680C60ED
:10014000704700000023002400250026103A28BF35
:1001500078C1FBD8520728BF30C148BF0B60704739
:10016000642901F0AD83002070471FB501F028FE1F
:1001700004000020002101F087FE401C60601FBDCC
:1001800010B510BD01F0F6FD1146FFF7EEFF00F0CF
:1001900009F801F027FE03B4FFF7F2FF03BC00F0FB
:1001A000A3FC0000002400F035FC4FF4A06000F038
:1001B0005FFD4FF4E13000F0A6FC4FF4614000F029
:1001C000ADFA4FF4164000F088FB00F029FB0DA0BB
:1001D00001F042FB1AA001F03FFB0AA001F03CFB3A
:1001E0000EE02CB900F078FAAA2809D1012407E022
:1001F00000241AA001F030FB02211D4800F0B5FEDA
:10020000EFE7000023232323232323232323232374
:1002100023232323232323232323232323232323AE
:10022000232323232323232323232323232323239E
:100230002323232323232323232323230D0A000003
:10024000090909CFB5CDB3C9CFB5E7B3F5CABCBB72
:10025000AFCDEAB3C9210D0A00000000D6B8CEC662
:10026000CAB6B1F0B3C9B9A6A3A10D0A0000000037
:1002700000080140704700BFFEE700BFFEE700BF77
:10028000FEE700BFFEE77047704770477047000009
:100290000CB50020019000906C48006840F480305C
:1002A0006A49086000BF6948006800F400300090A7
:1002B0000198401C0190009818B90198B0F5A06F02
:1002C000F1D16248006800F4003010B101200090C4
:1002D00001E0002000900098012843D15C480068AC
:1002E00040F010005A4908600846006820F00300FA
:1002F00008600846006840F0020008605348406803
:10030000524948600846406848600846406840F4E2
:10031000806048600846406820F47C1048600846C9
:10032000406840F4E81048600846006840F080707B
:10033000086000BF4548006800F000700028F9D050
:100340004248406820F00300404948600846406841
:1003500040F00200486000BF3C48406800F00C00DC
:100360000828F9D10CBD10B5FFF792FF10BD10B5EC
:100370003648006840F0010034490860084640688B
:10038000344908403149486008460068324908400D
:100390002E4908600846006820F48020086008465E
:1003A000406820F4FE0048604FF41F008860FFF7AB
:1003B000DAFF4FF000602949086010BD10B5002138
:1003C00000200022214B5B6803F00C0121B10429BD
:1003D00006D0082928D107E0214B224C236027E0D2
:1003E0001F4B204C236023E0184B5B6803F4701014
:1003F000164B5B6803F48032022303EB904022B972
:10040000194B4343174C23600DE0104B5B6803F41A
:10041000003323B1144B4343124C236003E0104BD1
:100420004343104C236003E00D4B0E4C236000BF90
:1004300000BF064B5B68C3F303130C4CE15C094B34
:100440001B68CB40074C236010BD00000010024029
:10045000002002400000FFF8FFFFF6FE08ED00E07C
:1004600000127A000000002000093D000400002076
:1004700070B5002508E00A2000F009FBE14800788B
:100480000C2800DB02E06D1C322DF4DB00BF322DA6
:100490002ADA00240DE0DC48005DEF2805D1DA49B6
:1004A000601C085C012800D10BE00A2000F0EFFA84
:1004B000641CD44801780078401CD24A1070A142D4
:1004C000E9DC00BFD04904F108000E5C002505E01E
:1004D000CD48005DCC494855641C6D1C06F10900EF
:1004E000A842F5DC012070BD0020FCE72DE9F047B3
:1004F0000025FFF7BDFF8146B9F1010F47D1C24882
:100500000078EF2843D1C048407801283FD1BE4849
:10051000807907283BD1062405E0BB48005D2844CC
:1005200085B2601C84B2B848007AC01DA042F4DCD9
:100530002E0AEFB2B448005DB04228D1B249601C27
:10054000085CB84223D1084690F80980B8F1000F42
:1005500009D0B8F1020F09D0B8F1060F07D0B8F1F1
:10056000090F0CD107E0AA20BDE8F08700BFDD200D
:10057000A549487207E0EE20A349487203E0FF2036
:10058000A149487200BF00BF9F48407AECE70020B5
:10059000EAE710B5044621469C4801F093F800BFF5
:1005A00040219A4801F0FCF80028F9D010BD70B540
:1005B0000546002405E09649085DFFF7EAFF601C48
:1005C000C4B2AC42F7DB70BD002006E00021904AC7
:1005D00011548D4A1154411CC8B21428F6DB002175
:1005E000884A117070472DE9F04106460D460027F4
:1005F000FFF7EAFF002083490870EF208449087064
:1006000001204870FF208870C8700871487101206F
:1006100088710020C871084605724672022E11D0FA
:10062000042E04D0062E12D00C2E25D118E0012065
:10063000774988720020C8720873012048732C2003
:1006400088731AE0734800787149887215E00120B8
:100650006F4988720020C8726F48007808730CE0F8
:1006600000206B4988726C480078C87200200873BB
:1006700069484078487300E000BF00BF062405E0E9
:100680006348005D384487B2601C84B2E81DA04214
:10069000F6DC380A5E4908550A46601C17540020EB
:1006A0005849087005F10901C8B2FFF780FFBDE89D
:1006B000F08170B500250BE003210120FFF793FFC7
:1006C000FFF714FF0446AA2C00D170BD681CC5B208
:1006D000642DF1DB0020F8E710B5FFF7EAFF0446D0
:1006E0000CB9002010BD01204A49087004210220E5
:1006F000FFF779FFFFF7FAFE0446AA2C01D000208D
:10070000F0E708210420FFF76EFFFFF7EFFE044635
:10071000AA2C01D00020E5E7AA20E3E710B586B0B7
:1007200004460121480400F03AFE0121042000F0B3
:1007300029FE0420ADF8140003208DF816001820BF
:100740008DF8170005A9354800F060FB0820ADF8CA
:10075000140004208DF8170005A9304800F056FB5E
:1007600026208DF8000003208DF801008DF802008E
:1007700001208DF80300684600F07FFA0194002004
:10078000ADF80800ADF80A00ADF80C00ADF81000A7
:100790000C20ADF80E0001A91C4800F09AFE0122C1
:1007A00040F22551194800F02CFF0121174800F0B4
:1007B0001CFF06B010BD70B504460D461648047007
:1007C000457007210C20FFF70EFFFFF78FFE06464E
:1007D000AA2E01D0002070BDAA20FCE710B540F27F
:1007E00025510A4800F0F2FF58B1084800F06EFFAA
:1007F000C4B2044801780078401C024A10700248D4
:10080000445410BD18000020500000200044004057
:100810003C000020170000201400002000080140C8
:1008200008B50121042000F0ADFD0220ADF8000064
:1008300010208DF8030003208DF80200694604485B
:1008400000F0E4FA0221024800F08DFB08BD000030
:100850000008014010B502460B464FF0FF3406E099
:10086000115D302901DB392901DD002010BD601C3C
:1008700004469842F4DB0120F8E710B500245748FD
:1008800000782A280BD155484078232807D154A056
:1008900000F0E2FF0221554800F065FB14E05448E7
:1008A00001784E48FFF7D6FF70B14C4801F0E0F8F0
:1008B0000446B4F5967F07DA21464EA000F0CCFF3F
:1008C00002214A4800F051FB30224021434801F008
:1008D000DCF800204649087010BD10B586B004460B
:1008E0000121880400F05BFD0121082000F04AFD91
:1008F0004FF48060ADF8140003208DF81600182026
:100900008DF8170005A9414800F080FA4FF4006007
:10091000ADF8140004208DF8170005A93B4800F03D
:1009200075FA27208DF8000002208DF801000320C1
:100930008DF8020001208DF80300684600F09DF953
:1009400001940020ADF80800ADF80A00ADF80C00E5
:10095000ADF810000C20ADF80E0001A92C4800F0F5
:10096000B8FD012240F22551294800F04AFE01213C
:10097000274800F03AFE06B010BD10B504462146E7
:10098000234800F09FFE00BF4021214800F008FFEF
:100990000028F9D010BD10B540F225511C4800F0D8
:1009A00015FFC8B11A4800F091FEC4B2232C0CD038
:1009B0000F4800783F2808DA0D4801780078401C7D
:1009C0000B4A10700548445406E023200349084AA6
:1009D00012788854FFF751FF10BD0000640000201A
:1009E0005455524E204F46460D0A00000008014063
:1009F00019000020494425303364D3C3BBA73A54BF
:100A000055524E204F4E0D0A00000000000C0140D0
:100A10000048004010B56FF0040000F078F92E484F
:100A200000682E49B0FBF1F02D49087008460078A7
:100A300000EB4001C1EBC0104FF6FF7101EAC000AE
:100A40002849088010BD0146254A12784A434FF0D4
:100A5000E0235A6100229A611A46126942F00102AB
:100A60001A6100BF4FF0E022106900F001021AB1D4
:100A700000F48032002AF5D04FF0E022126922F013
:100A800001024FF0E0231A6100229A61704701468B
:100A9000144A12884A434FF0E0235A6100229A61B7
:100AA0001A46126942F001021A6100BF4FF0E022BB
:100AB000106900F001021AB100F48032002AF5D06A
:100AC0004FF0E022126922F001024FF0E0231A6198
:100AD00000229A61704700000000002000127A0096
:100AE0001A0000201C000020014600BF704700BF14
:100AF0004A4A128802F04002002AF9D0C2B2474B9B
:100B00001B1D1A80704710B586B00446012144F2BF
:100B1000040000F037FC4FF40070ADF8140003201F
:100B20008DF8160018208DF8170005A93C4800F034
:100B30006DF94FF48060ADF8140004208DF81700B3
:100B400005A9374800F062F925208DF80000032040
:100B50008DF801008DF8020001208DF80300684631
:100B600000F08BF801940020ADF80800ADF80A0001
:100B7000ADF80C00ADF810000C20ADF80E0001A986
:100B8000264800F0A6FC012240F22551234800F03F
:100B900038FD0121214800F028FD06B010BD10B538
:100BA00040F225511D4800F011FE20B31B4800F013
:100BB0008DFDC4B21B4804701B48008800F400403F
:100BC000C8B91948008800F4804060B10A2C03D0ED
:100BD00000201549088020E01348008840F40040B8
:100BE0001149088019E00D2C06D10F48008840F407
:100BF00080400D49088010E00B480088C0F30D00CC
:100C00000A490C5408480088401C074908800846D7
:100C10000088C72801DD0020088010BD0038014091
:100C2000000801402600002024000020A40000202D
:100C30000948804709480047FEE7FEE7FEE7FEE770
:100C4000FEE7FEE7FEE7FEE7FEE7FEE704480549AC
:100C5000054A064B704700006F030008ED000008CE
:100C6000D0010020D0070020D0030020D0030020B6
:100C700031490143314A1160704770B500210023AA
:100C80000F22C47804B32D4C246804F4E064C4F546
:100C9000E064210AC1F10403CA40447804FA03F174
:100CA0008478144021430901254C0678A155047825
:100CB00004F01F050124AC4005786D11AD0005F16D
:100CC000E025C5F8004109E0047804F01F0501247F
:100CD000AC401C4D0678761145F8264070BD1A4A86
:100CE0000A400243154B1B1F1A60704739B1134A63
:100CF000121D12680243114B1B1D1A6006E00F4AB9
:100D0000121D126882430D4B1B1D1A607047042888
:100D100008D14FF0E021096941F004014FF0E022D1
:100D2000116107E04FF0E021096921F004014FF063
:100D3000E0221161704700000000FA050CED00E0B0
:100D400000E400E080E100E080FFFF1F10B50446F2
:100D5000CC48844208D10121042000F02DFB002161
:100D6000042000F029FB46E0C748844208D1012155
:100D7000082000F021FB0021082000F01DFB3AE0D4
:100D8000C248844208D10121102000F015FB002147
:100D9000102000F011FB2EE0BD48844208D1012153
:100DA000202000F009FB0021202000F005FB22E0BC
:100DB000B848844208D10121402000F0FDFA00210A
:100DC000402000F0F9FA16E0B348844208D101212E
:100DD000802000F0F1FA0021802000F0EDFA0AE016
:100DE000AE48844207D10121801500F0E5FA0021C8
:100DF000A01500F0E1FA10BD10B50121084600F081
:100E0000DBFA0021012000F0D7FA10BD2DE9F041F6
:100E1000024600250026002000230024002791F828
:100E200003C00CF00F0591F803C00CF0100CBCF1DE
:100E3000000F03D091F802C04CEA050591F800C0FC
:100E4000BCF1000F31D0146800202BE04FF0010CF2
:100E50000CFA00F3B1F800C00CEA03069E4220D160
:100E600083004FF00F0C0CFA03F7BC4305FA03FCA8
:100E70004CEA040491F803C0BCF1280F06D14FF0EE
:100E8000010C0CFA00FCC2F814C00AE091F803C08F
:100E9000BCF1480F05D14FF0010C0CFA00FCC2F870
:100EA00010C0401C0828D1D31460B1F800C0BCF1B8
:100EB000FF0F34DD546800202EE000F1080C4FF0E5
:100EC000010808FA0CF3B1F800C00CEA03069E42D0
:100ED00021D183004FF00F0C0CFA03F7BC4305FA45
:100EE00003FC4CEA040491F803C0BCF1280F05D1BF
:100EF00000F1080C08FA0CF8C2F8148091F803C04D
:100F0000BCF1480F07D100F1080C4FF0010808FAB6
:100F10000CF8C2F81080401C0828CED35460BDE8FD
:100F2000F0814FF6FF710180022181700421C170B0
:100F300070470246002093680B400BB1012000E08F
:100F4000002070470146886880B270470246002042
:100F5000D3680B400BB1012000E000207047014630
:100F6000C86880B2704701617047416170470AB13B
:100F7000016100E041617047C16070474FF4803209
:100F80000A43826181618261826982697047024697
:100F90000020434B18684FF68073184040EA021057
:100FA00008433F4B186070473E49C8617047F0B531
:100FB0000A46002300240021002500F00046B6F177
:100FC000004F02D1364EF16901E0354E7168C0F331
:100FD000034583B200F44016B6F5401F08D121F056
:100FE00070612F4E766826F070662D4F7E6012E09D
:100FF00000F48016B6F5801F06D1032606FA05F424
:10100000A14341F0706106E0460D360103FA06F691
:10101000B14341F0706122B1460D360103FA06F684
:10102000314300F00046B6F1004F02D11C4EF16191
:1010300001E01B4E7160F0BD30B500228B071C0F24
:101040000F2303FA04F2164B08338C1053F82430A4
:101050009343134C08348D1044F8253023468C10EC
:1010600053F824308C07240F00FA04F423430C4C6B
:1010700008348D1044F8253030BD0A49DC31086051
:101080007047000000080140000C014000100140C2
:101090000014014000180140001C014000200140E4
:1010A0000000014000002042DF48006840F00100DD
:1010B000DD49086008464068DC490840DA49486074
:1010C00008460068DA490840D749086008460068C1
:1010D00020F4802008600846406820F4FE00486044
:1010E0004FF41F0088607047CF49096821F48031B0
:1010F000CD4A11601146096821F480211160B0F5D4
:10110000803F03D0B0F5802F0ED106E0C6490968B4
:1011100041F48031C44A116007E0C349096841F4D1
:10112000A021C14A116000E000BF00BF704710B5A8
:1011300001460022002300204A11012A02D1BA4CA4
:10114000236806E0022A02D1B74C236A01E0B64CBC
:10115000636A01F01F02012494401C400CB101207D
:1011600000E0002010BD38B50020009000240025CC
:1011700000BF3120FFF7DBFF05460098401C0090C0
:101180000098B0F5A06F01D0002DF2D03120FFF70C
:10119000CEFF08B1012400E00024204638BD0146FE
:1011A0000020A14A106820F0F80040EAC100106059
:1011B0007047A04908607047024600209A4B586863
:1011C00020F47C1042EA01031843974B58607047A3
:1011D00098490866704701460020934A506820F0FD
:1011E00003000843506070478F48406800F00C00CF
:1011F0007047014600208C4A506820F0F0000843F8
:101200005060704701460020874A506820F4E06033
:1012100008435060704701460020834A506820F41C
:10122000605040EAC1005060704729B17E4A527A4E
:1012300002437D4B5A7204E07B4A527A82437A4BD6
:101240005A7270477B49D8310860704701460020C8
:10125000754A506820F440400843506070470021B0
:10126000714A20321170704A82F82010012802D091
:1012700004280AD104E001216B4A2032117005E0F4
:101280000521694A2032117000E000BF00BF70479D
:101290006949086070476449096A0143624A1162FA
:1012A0007047654944390860704730B50021002215
:1012B000002400235C4D6D6805F00C0121B1042968
:1012C00005D0082923D105E05C4D056022E05B4D87
:1012D00005601FE0544D6D6805F47012524D6D6845
:1012E00005F48034022505EB92421CB9544D554358
:1012F00005600BE04C4D6D6805F400351DB1504D97
:101300005543056002E04D4D5543056002E04B4DED
:10131000056000BF00BF444D6D6805F0F00109098C
:10132000484D6B5C0568DD4045603F4D6D6805F4D8
:10133000E061090A434D6B5C4568DD4085603A4DCC
:101340006D6805F46051C90A3E4D6B5C4568DD402F
:10135000C560354D6D6805F44041890B3A4D6B5CB5
:10136000C568B5FBF3F5056130BD29B12E4A526958
:1013700002432D4B5A6104E02B4A526982432A4BA7
:101380005A61704729B1284A92690243264B9A61F3
:1013900004E0254A92698243234B9A61704729B140
:1013A000214AD2690243204BDA6104E01E4AD26925
:1013B00082431D4BDA61704729B11B4AD268024350
:1013C000194BDA6004E0184AD2688243164BDA609F
:1013D000704729B1144A12690243134B1A6104E0A1
:1013E000114A12698243104B1A6170471249403901
:1013F000086070470F49C86470470B49C87170474F
:101400000948406A40F080700749486270470146C9
:101410000020054A92680A400AB1012000E000203D
:101420007047014988727047001002400000FFF8C1
:10143000FFFFF6FE000042428004424200127A00A2
:1014400000093D00270000203700002010B50446A9
:10145000FB48844209D101218803FFF7ADFF002139
:101460004FF48040FFF7A8FF32E0F648844209D1EC
:1014700001214804FFF7ADFF00214FF40030FFF7D2
:10148000A8FF25E0F048844209D101218804FFF734
:10149000A0FF00214FF48020FFF79BFF18E0EB48EE
:1014A000844209D10121C804FFF793FF00214FF4C2
:1014B0000020FFF78EFF0BE0E548844208D10121B0
:1014C0000805FFF786FF00214FF48010FFF781FF2A
:1014D00010BD2DE9F04786B005460E460024A24611
:1014E00000BFA1460027B08900B100BF2F462C8A5B
:1014F0004CF6FF700440F08804432C82AC894EF611
:10150000F3100440B08831890843718908430443CB
:10151000AC81AC8A4FF6FF400440B0890443AC82F2
:1015200001A8FFF7C2FEC648874202D1DDF810A02D
:1015300001E0DDF80CA0A88900F4004040B10AEBFE
:10154000CA0000EB0A1031684900B0FBF1F807E06F
:101550000AEBCA0000EB0A1031688900B0FBF1F811
:101560006420B8FBF0F004012009642101FB10891C
:10157000A88900F4004040B1322000EBC900B0FB64
:10158000F1F000F00700044308E0322000EB0910FE
:101590006421B0FBF1F000F00F0004432C8106B091
:1015A000BDE8F0874FF41651016000218180C180B1
:1015B00001810C21418100218181704710B50246D3
:1015C0000020108A4FF2FF0318400B884C882343F9
:1015D0008C882343CC8823431843108210BD0021FC
:1015E000018041808180C180704721B1828942F4AD
:1015F0000052828104E082894DF6FF731A40828195
:101600007047F0B50346002400260025002040F670
:101610006A17B94200D100BF1846C1F3421401F065
:101620001F06012707FA06F5012C01D10C3004E052
:10163000022C01D1103000E014301AB107682F439A
:10164000076002E00768AF430760F0BD1AB1838A04
:101650000B43838202E0838A8B4383827047028A32
:101660004FF6F0731A400282028A0A4302827047E0
:1016700082894FF2FF731A40828182890A438281F4
:10168000704721B1828942F00202828104E082899E
:101690004FF6FD731A4082817047028A4FF6DF735E
:1016A0001A400282028A0A430282704721B1028AEA
:1016B00042F48042028204E0028A4BF6FF731A4031
:1016C00002827047C1F30802828070470146888811
:1016D000C0F308007047818941F0010181817047A2
:1016E000028BD2B20283028B42EA0122028370474C
:1016F000028B02F47F420283028B0A43028370470B
:1017000021B1828A42F02002828204E0828A4FF66E
:10171000DF731A408282704721B1828A42F0100240
:10172000828204E0828A4FF6EF731A408282704709
:1017300021B1828A42F00802828204E0828A4FF656
:10174000F7731A408282704721B1828942F40042C5
:10175000828103E08289C2F30E028281704721B147
:10176000828A42F40062828204E0828A4FF2FF732E
:101770001A4082827047828A4FF6FB731A40828237
:10178000828A0A438282704721B1828A42F0020231
:10179000828204E0828A4FF6FD731A40828270478B
:1017A00002460020B1F5007F00D100BF13880B4036
:1017B0000BB1012000E00020704701F40072B2F587
:1017C000007F00D100BFCA430280704770B5024657
:1017D000002400230025002040F66A16B14200D103
:1017E00000BFC1F3421501F01F03012606FA03F3FF
:1017F000012D02D19689334006E0022D02D1168ACE
:10180000334001E0968A33400C12012606FA04F4B4
:101810001688344013B10CB1012000E0002070BDE7
:1018200010B50022002340F66A14A14200D100BF87
:101830000A1201249440A3B2DC43048010BD0000CE
:10184000003801400044004000480040004C004087
:1018500000500040704700000FB4044910B503AABF
:10186000029800F07DF910BC5DF814FB2000002008
:1018700070B5044685690068C10601D5302600E0D0
:101880002026C00707D070BDD4E90121304690471B
:10189000206A401C20626D1EF6D570BD70B50446EE
:1018A00085690078C00707D170BDD4E901212020E7
:1018B0009047206A401C20626D1EF6D570BD000066
:1018C0002DE9F0410646002410687529314616A519
:1018D00010D0AFF30080002802DA404213A507E0E1
:1018E00031688A0701D512A502E0490704D511A580
:1018F000012401E0AFF3008000210A2206F1240751
:1019000009E0B0FBF2FCB0FBF2F302FB1C0030304C
:1019100078541846491C0028F3D123462A463046FD
:10192000BDE8F04100F0C2B8000000002D0000004A
:101930002B000000200000002DE9F05F89460446DE
:101940004FF0000ADFF824B1FB44C0F820A0204685
:10195000E168884700287DD0252806D0D4E90121F8
:101960009047206A401C2062F1E700255F46204630
:10197000E16888472028064607DB312E05D2B819D2
:1019800010F8200C08B10543F1E7A80701D525F0B0
:101990000405C4F81CA00027C4F818A02A2E09D0FA
:1019A000304600F069FA38B304EB8708303EC8F8D7
:1019B000186019E059F8041B204604EB8702916176
:1019C000E1688847012F064618D1E069002820DA2F
:1019D00025F020051DE0D8F8180000EB800006EB8C
:1019E00040003038C8F818002046E16888470646AD
:1019F00000F042FA0028EED1012F0AD02E2E08D195
:101A00002046E16888477F1C0646022F45F02005E6
:101A1000C4DBA069002803DA404245F00105A0615B
:101A2000E80701D025F01005A6B1A6F1410019285C
:101A300002D8203645F400654A46314620462560E6
:101A40004D46FEF78DFB60B1012807D0ED1D25F056
:101A5000070000E007E000F1080978E705F1040954
:101A600075E730467AE7206ABDE8F09F6805000018
:101A700070B5064600F016F80468054630460A229E
:101A8000002100F07FF82C6070BD02F0FF0343EAF4
:101A9000032242EA024200F0AFB870477047704735
:101AA00070470000004870476C0100202DE9F047A6
:101AB0000D4699469246044600F1240801688806BE
:101AC00004D5E06921F01001216000E00120A84266
:101AD00001DD471B00E00027A1697A1902EB09002C
:101AE000081AA0612078C00602D42046FFF7C0FE85
:101AF000002608E0D4E901211AF806009047206A80
:101B0000401C761C20624E45F4DB2078C0060AD5C6
:101B10002046FFF7ADFE06E0D4E9012130209047D2
:101B2000206A401C2062381EA7F10107F4DC07E0A0
:101B3000D4E9012118F805009047206A401C206272
:101B4000281EA5F10105F3DC2046FFF7A7FE20784B
:101B5000000602D50220BDE8F0870120FBE7000067
:101B6000074B70B50D467B4400F077F804462846D5
:101B700000F0D5F810B14FF0FF3070BD204670BDB9
:101B800085EFFFFF2DE9F04791460F46804604465A
:101B9000002614F8015B2DB100F052F80068405D9A
:101BA000C007F6D12B2D02D02D2D18D0641E4A4629
:101BB0003946204600F064F827B13968A14201D1C6
:101BC000C7F800804FF0020471050BD54042002891
:101BD00003DDFFF767FF0460A007BDE8F08746F468
:101BE0008066E4E70028F8DAFFF75CFF04606FF036
:101BF0000040F2E74FF000020429C0F0128010F01C
:101C0000030C00F09280CCF1040CBCF1020F18BF61
:101C100000F8012BA8BF20F8022BA1EB0C0100F06B
:101C200084B85FEAC17C24BF00F8012B00F8012BC7
:101C300048BF00F8012B7047004870476C01002036
:101C400010B500F0BDF8001D10BD00BF3D02000042
:101C500001694A1C02610878704700B58FB0CDE970
:101C600001310021059105497944CDE90310114660
:101C70006846FFF761FE0FB000BD0000E5FFFFFF03
:101C80002DE9F05F824615468B4600270AF10104D4
:101C9000B9460078302801D09DB113E014F8010B4B
:101CA0000127782803D0582801D045B10AE00DB1AA
:101CB000102D07D1002714F8010B102502E008258C
:101CC00000E00A250026B0460EE005FB080005FBF3
:101CD00006F101271FFA80F801EB1046B6F5803FA8
:101CE00000D3B94614F8010B294600F06DF800281E
:101CF000EBDABBF1000F05D00FB1641E00E05446D3
:101D0000CBF80040B9F1000F06D0FFF7CBFE02215F
:101D10000160C81EBDE8F09F48EA0640FAE7007B74
:101D200000F0800070474FF0000200B51346944663
:101D30009646203922BFA0E80C50A0E80C50B1F123
:101D40002001BFF4F7AF090728BFA0E80C5048BF37
:101D50000CC05DF804EB890028BF40F8042B08BFD5
:101D6000704748BF20F8022B11F0804F18BF00F8D1
:101D7000012B70477546FFF75FFFAE4605006946C9
:101D8000534620F00700854618B020B5FEF75EFFE9
:101D9000BDE820404FF000064FF000074FF000086C
:101DA0004FF0000B21F00701AC46ACE8C009ACE8ED
:101DB000C009ACE8C009ACE8C0098D467047000016
:101DC000004870478C0100203A2800D2303820F0BB
:101DD0002002412A01D3A2F13700884201D34FF0FB
:101DE000FF30704710B50446AFF300802046BDE8D1
:101DF0001040FEF7D0B900004FF0013C50F8042B22
:101E000051F8043B9A4221D1A2EB0C03934313EA0D
:101E1000CC1317D150F8042B51F8043B9A4215D13A
:101E2000A2EB0C03934313EACC130BD150F8042B11
:101E300051F8043B9A4209D1A2EB0C03934313EAF5
:101E4000CC13DBD04FF00000704700BFD01A01BAAE
:101E5000B1FA81F101F0180122FA01F0CB40C1F191
:101E60002001DBB2C0B2C01A2CFA01F3D11A91439F
:101E700011EAC311E6D1704730380A2801D2012097
:101E8000704700207047000010B500290AD008787C
:101E9000002807D005487844FFF7AEFF002801D09E
:101EA000002010BD0248784410BD00005200000020
:101EB0004A000000040000080000000000000002CA
:101EC0000001000010000000F81F000800000020C2
:101ED0003C00000028010008342000083C000020DD
:101EE00094070000440100081001000043000000B6
:101EF000F8FFFFFF0040404040404040404041412B
:101F000041414140404040404040404040404040CE
:101F10004040404040050202020202020202020268
:101F20000202020202202020202020202020200265
:101F300002020202020290909090909010101010F5
:101F40001010101010101010101010101010101091
:101F50000202020202028888888888880808080825
:101F600008080808080808080808080808080808F1
:101F70000202020240000000000000000000000019
:101F80000000000000000000000000000000000051
:101F90000000000000000000000000000000000041
:101FA0000000000000000000000000000000000031
:101FB0000000000000000000000000000000000021
:101FC0000000000000000000000000000000000011
:101FD0000000000000000000000000000000000001
:101FE00000000000000000000000000000000000F1
:101FF000000000000000000000A24A0400000000F1
:1020000000000000010203040607080900000001A7
:1020100000000000000000000000000000000000C0
:10202000000000010203040102030406070809027C
:04203000040608009A
:04000005080000ED02
:00000001FF
